{
  "_format": "hh-sol-artifact-1",
  "contractName": "StarNet",
  "sourceName": "contracts/StarNet.sol",
  "abi": [
    {
      "inputs": [],
      "stateMutability": "payable",
      "type": "constructor"
    },
    {
      "anonymous": false,
      "inputs": [
        {
          "indexed": true,
          "internalType": "address",
          "name": "from",
          "type": "address"
        },
        {
          "indexed": false,
          "internalType": "uint256",
          "name": "timestamp",
          "type": "uint256"
        },
        {
          "indexed": false,
          "internalType": "string",
          "name": "message",
          "type": "string"
        }
      ],
      "name": "NewStar",
      "type": "event"
    },
    {
      "anonymous": false,
      "inputs": [
        {
          "indexed": true,
          "internalType": "address",
          "name": "from",
          "type": "address"
        }
      ],
      "name": "NewWinner",
      "type": "event"
    },
    {
      "inputs": [],
      "name": "getAllStars",
      "outputs": [
        {
          "components": [
            {
              "internalType": "address",
              "name": "sender",
              "type": "address"
            },
            {
              "internalType": "string",
              "name": "message",
              "type": "string"
            },
            {
              "internalType": "uint256",
              "name": "timestamp",
              "type": "uint256"
            },
            {
              "internalType": "bool",
              "name": "won",
              "type": "bool"
            }
          ],
          "internalType": "struct StarNet.Star[]",
          "name": "",
          "type": "tuple[]"
        }
      ],
      "stateMutability": "view",
      "type": "function"
    },
    {
      "inputs": [],
      "name": "getLastStar",
      "outputs": [
        {
          "internalType": "uint256",
          "name": "",
          "type": "uint256"
        }
      ],
      "stateMutability": "view",
      "type": "function"
    },
    {
      "inputs": [],
      "name": "getTotalStars",
      "outputs": [
        {
          "internalType": "uint256",
          "name": "",
          "type": "uint256"
        }
      ],
      "stateMutability": "view",
      "type": "function"
    },
    {
      "inputs": [
        {
          "internalType": "address",
          "name": "",
          "type": "address"
        }
      ],
      "name": "lastStarred",
      "outputs": [
        {
          "internalType": "uint256",
          "name": "",
          "type": "uint256"
        }
      ],
      "stateMutability": "view",
      "type": "function"
    },
    {
      "inputs": [
        {
          "internalType": "string",
          "name": "_message",
          "type": "string"
        }
      ],
      "name": "sendStar",
      "outputs": [],
      "stateMutability": "nonpayable",
      "type": "function"
    }
  ],
  "bytecode": "0x60806040526200004f6040518060400160405280601b81526020017f57656c636f6d6520746f20537461724e657420436f6e747261637400000000008152506200005560201b6200094a1760201c565b620001e9565b620000f5816040516024016200006c919062000162565b6040516020818303038152906040527f41304fac000000000000000000000000000000000000000000000000000000007bffffffffffffffffffffffffffffffffffffffffffffffffffffffff19166020820180517bffffffffffffffffffffffffffffffffffffffffffffffffffffffff8381831617835250505050620000f860201b60201c565b50565b60008151905060006a636f6e736f6c652e6c6f679050602083016000808483855afa5050505050565b60006200012e8262000186565b6200013a818562000191565b93506200014c818560208601620001a2565b6200015781620001d8565b840191505092915050565b600060208201905081810360008301526200017e818462000121565b905092915050565b600081519050919050565b600082825260208201905092915050565b60005b83811015620001c2578082015181840152602081019050620001a5565b83811115620001d2576000848401525b50505050565b6000601f19601f8301169050919050565b61143080620001f96000396000f3fe608060405234801561001057600080fd5b50600436106100575760003560e01c806308846e9c1461005c57806318e60dd7146100785780636e9cd2bc14610096578063a566e3c7146100b4578063b83b17c6146100d2575b600080fd5b61007660048036038101906100719190610c8d565b610102565b005b6100806106b6565b60405161008d91906110b6565b60405180910390f35b61009e610701565b6040516100ab9190610fb2565b60405180910390f35b6100bc61086d565b6040516100c991906110b6565b60405180910390f35b6100ec60048036038101906100e79190610c64565b610932565b6040516100f991906110b6565b60405180910390f35b42610384600360003373ffffffffffffffffffffffffffffffffffffffff1673ffffffffffffffffffffffffffffffffffffffff1681526020019081526020016000205461015091906111d3565b10610190576040517f08c379a000000000000000000000000000000000000000000000000000000000815260040161018790611096565b60405180910390fd5b42600360003373ffffffffffffffffffffffffffffffffffffffff1673ffffffffffffffffffffffffffffffffffffffff1681526020019081526020016000208190555060016000808282546101e691906111d3565b9250508190555061022c6040518060400160405280601481526020017f2573206a7573742073656e742061205374617221000000000000000000000000815250336109e3565b60006064600154424461023f91906111d3565b61024991906111d3565b61025391906112e5565b90506102946040518060400160405280601681526020017f52616e646f6d20232067656e6572617465643a2025730000000000000000000081525082610a7f565b80600181905550603281101561056c576102e36040518060400160405280600781526020017f257320776f6e2100000000000000000000000000000000000000000000000000815250336109e3565b6000655af3107a4000905047811115610331576040517f08c379a000000000000000000000000000000000000000000000000000000000815260040161032890611056565b60405180910390fd5b60003373ffffffffffffffffffffffffffffffffffffffff168260405161035790610f9d565b60006040518083038185875af1925050503d8060008114610394576040519150601f19603f3d011682016040523d82523d6000602084013e610399565b606091505b50509050806103dd576040517f08c379a00000000000000000000000000000000000000000000000000000000081526004016103d490611076565b60405180910390fd5b600260405180608001604052803373ffffffffffffffffffffffffffffffffffffffff16815260200186815260200142815260200160011515815250908060018154018082558091505060019003906000526020600020906004020160009091909190915060008201518160000160006101000a81548173ffffffffffffffffffffffffffffffffffffffff021916908373ffffffffffffffffffffffffffffffffffffffff16021790555060208201518160010190805190602001906104a5929190610b44565b506040820151816002015560608201518160030160006101000a81548160ff02191690831515021790555050503373ffffffffffffffffffffffffffffffffffffffff167f6863c292df906411c35af226e1ebe6a4119147b8de837e11c889e8d40b040a40428660405161051a9291906110d1565b60405180910390a23373ffffffffffffffffffffffffffffffffffffffff167ffcd0090a8eb426c754f5529cb82a16921d765142042acb46601b8804e85f966d60405160405180910390a250506106b2565b600260405180608001604052803373ffffffffffffffffffffffffffffffffffffffff16815260200184815260200142815260200160001515815250908060018154018082558091505060019003906000526020600020906004020160009091909190915060008201518160000160006101000a81548173ffffffffffffffffffffffffffffffffffffffff021916908373ffffffffffffffffffffffffffffffffffffffff1602179055506020820151816001019080519060200190610634929190610b44565b506040820151816002015560608201518160030160006101000a81548160ff02191690831515021790555050503373ffffffffffffffffffffffffffffffffffffffff167f6863c292df906411c35af226e1ebe6a4119147b8de837e11c889e8d40b040a4042846040516106a99291906110d1565b60405180910390a25b5050565b60006106f96040518060400160405280601081526020017f5765206861766520256420737461727300000000000000000000000000000000815250600054610a7f565b600054905090565b60606002805480602002602001604051908101604052809291908181526020016000905b8282101561086457838290600052602060002090600402016040518060800160405290816000820160009054906101000a900473ffffffffffffffffffffffffffffffffffffffff1673ffffffffffffffffffffffffffffffffffffffff1673ffffffffffffffffffffffffffffffffffffffff1681526020016001820180546107ae906112b3565b80601f01602080910402602001604051908101604052809291908181526020018280546107da906112b3565b80156108275780601f106107fc57610100808354040283529160200191610827565b820191906000526020600020905b81548152906001019060200180831161080a57829003601f168201915b50505050508152602001600282015481526020016003820160009054906101000a900460ff16151515158152505081526020019060010190610725565b50505050905090565b60006108ed6040518060400160405280600a81526020017f4c61737420537461723a00000000000000000000000000000000000000000000815250600360003373ffffffffffffffffffffffffffffffffffffffff1673ffffffffffffffffffffffffffffffffffffffff16815260200190815260200160002054610a7f565b600360003373ffffffffffffffffffffffffffffffffffffffff1673ffffffffffffffffffffffffffffffffffffffff16815260200190815260200160002054905090565b60036020528060005260406000206000915090505481565b6109e08160405160240161095e9190610fd4565b6040516020818303038152906040527f41304fac000000000000000000000000000000000000000000000000000000007bffffffffffffffffffffffffffffffffffffffffffffffffffffffff19166020820180517bffffffffffffffffffffffffffffffffffffffffffffffffffffffff8381831617835250505050610b1b565b50565b610a7b82826040516024016109f9929190610ff6565b6040516020818303038152906040527f319af333000000000000000000000000000000000000000000000000000000007bffffffffffffffffffffffffffffffffffffffffffffffffffffffff19166020820180517bffffffffffffffffffffffffffffffffffffffffffffffffffffffff8381831617835250505050610b1b565b5050565b610b178282604051602401610a95929190611026565b6040516020818303038152906040527f9710a9d0000000000000000000000000000000000000000000000000000000007bffffffffffffffffffffffffffffffffffffffffffffffffffffffff19166020820180517bffffffffffffffffffffffffffffffffffffffffffffffffffffffff8381831617835250505050610b1b565b5050565b60008151905060006a636f6e736f6c652e6c6f679050602083016000808483855afa5050505050565b828054610b50906112b3565b90600052602060002090601f016020900481019282610b725760008555610bb9565b82601f10610b8b57805160ff1916838001178555610bb9565b82800160010185558215610bb9579182015b82811115610bb8578251825591602001919060010190610b9d565b5b509050610bc69190610bca565b5090565b5b80821115610be3576000816000905550600101610bcb565b5090565b6000610bfa610bf584611132565b611101565b905082815260208101848484011115610c1257600080fd5b610c1d848285611271565b509392505050565b600081359050610c34816113e3565b92915050565b600082601f830112610c4b57600080fd5b8135610c5b848260208601610be7565b91505092915050565b600060208284031215610c7657600080fd5b6000610c8484828501610c25565b91505092915050565b600060208284031215610c9f57600080fd5b600082013567ffffffffffffffff811115610cb957600080fd5b610cc584828501610c3a565b91505092915050565b6000610cda8383610f1c565b905092915050565b610ceb81611229565b82525050565b610cfa81611229565b82525050565b6000610d0b82611172565b610d158185611195565b935083602082028501610d2785611162565b8060005b85811015610d635784840389528151610d448582610cce565b9450610d4f83611188565b925060208a01995050600181019050610d2b565b50829750879550505050505092915050565b610d7e8161123b565b82525050565b6000610d8f8261117d565b610d9981856111b1565b9350610da9818560208601611280565b610db2816113d2565b840191505092915050565b6000610dc88261117d565b610dd281856111c2565b9350610de2818560208601611280565b610deb816113d2565b840191505092915050565b6000610e036034836111c2565b91507f547279696e6720746f207769746864726177206d6f7265206d6f6e657920746860008301527f616e2074686520636f6e7472616374206861732e0000000000000000000000006020830152604082019050919050565b6000610e696027836111c2565b91507f4661696c656420746f207769746864726177206d6f6e65792066726f6d20636f60008301527f6e74726163742e000000000000000000000000000000000000000000000000006020830152604082019050919050565b6000610ecf600a836111c2565b91507f576169742031356d696e000000000000000000000000000000000000000000006000830152602082019050919050565b6000610f0f6000836111a6565b9150600082019050919050565b6000608083016000830151610f346000860182610ce2565b5060208301518482036020860152610f4c8282610d84565b9150506040830151610f616040860182610f7f565b506060830151610f746060860182610d75565b508091505092915050565b610f8881611267565b82525050565b610f9781611267565b82525050565b6000610fa882610f02565b9150819050919050565b60006020820190508181036000830152610fcc8184610d00565b905092915050565b60006020820190508181036000830152610fee8184610dbd565b905092915050565b600060408201905081810360008301526110108185610dbd565b905061101f6020830184610cf1565b9392505050565b600060408201905081810360008301526110408185610dbd565b905061104f6020830184610f8e565b9392505050565b6000602082019050818103600083015261106f81610df6565b9050919050565b6000602082019050818103600083015261108f81610e5c565b9050919050565b600060208201905081810360008301526110af81610ec2565b9050919050565b60006020820190506110cb6000830184610f8e565b92915050565b60006040820190506110e66000830185610f8e565b81810360208301526110f88184610dbd565b90509392505050565b6000604051905081810181811067ffffffffffffffff82111715611128576111276113a3565b5b8060405250919050565b600067ffffffffffffffff82111561114d5761114c6113a3565b5b601f19601f8301169050602081019050919050565b6000819050602082019050919050565b600081519050919050565b600081519050919050565b6000602082019050919050565b600082825260208201905092915050565b600081905092915050565b600082825260208201905092915050565b600082825260208201905092915050565b60006111de82611267565b91506111e983611267565b9250827fffffffffffffffffffffffffffffffffffffffffffffffffffffffffffffffff0382111561121e5761121d611316565b5b828201905092915050565b600061123482611247565b9050919050565b60008115159050919050565b600073ffffffffffffffffffffffffffffffffffffffff82169050919050565b6000819050919050565b82818337600083830152505050565b60005b8381101561129e578082015181840152602081019050611283565b838111156112ad576000848401525b50505050565b600060028204905060018216806112cb57607f821691505b602082108114156112df576112de611374565b5b50919050565b60006112f082611267565b91506112fb83611267565b92508261130b5761130a611345565b5b828206905092915050565b7f4e487b7100000000000000000000000000000000000000000000000000000000600052601160045260246000fd5b7f4e487b7100000000000000000000000000000000000000000000000000000000600052601260045260246000fd5b7f4e487b7100000000000000000000000000000000000000000000000000000000600052602260045260246000fd5b7f4e487b7100000000000000000000000000000000000000000000000000000000600052604160045260246000fd5b6000601f19601f8301169050919050565b6113ec81611229565b81146113f757600080fd5b5056fea2646970667358221220312bfe97f25b1121aa4ef2068a96d7ae06e6a350a725cfd62c7b523ee3cca01564736f6c63430008000033",
  "linkReferences": {},
  "deployedLinkReferences": {}
}